{
  "contractName": "MarketPlace",
  "abi": [
    {
      "constant": true,
      "inputs": [
        {
          "name": "",
          "type": "address"
        }
      ],
      "name": "admins",
      "outputs": [
        {
          "name": "",
          "type": "bool"
        }
      ],
      "payable": false,
      "stateMutability": "view",
      "type": "function"
    },
    {
      "constant": true,
      "inputs": [
        {
          "name": "",
          "type": "address"
        }
      ],
      "name": "stores",
      "outputs": [
        {
          "name": "",
          "type": "bool"
        }
      ],
      "payable": false,
      "stateMutability": "view",
      "type": "function"
    },
    {
      "constant": true,
      "inputs": [
        {
          "name": "",
          "type": "address"
        }
      ],
      "name": "sellers",
      "outputs": [
        {
          "name": "",
          "type": "bool"
        }
      ],
      "payable": false,
      "stateMutability": "view",
      "type": "function"
    },
    {
      "constant": false,
      "inputs": [],
      "name": "renounceOwnership",
      "outputs": [],
      "payable": false,
      "stateMutability": "nonpayable",
      "type": "function"
    },
    {
      "constant": true,
      "inputs": [],
      "name": "owner",
      "outputs": [
        {
          "name": "",
          "type": "address"
        }
      ],
      "payable": false,
      "stateMutability": "view",
      "type": "function"
    },
    {
      "constant": true,
      "inputs": [],
      "name": "isOwner",
      "outputs": [
        {
          "name": "",
          "type": "bool"
        }
      ],
      "payable": false,
      "stateMutability": "view",
      "type": "function"
    },
    {
      "constant": false,
      "inputs": [
        {
          "name": "newOwner",
          "type": "address"
        }
      ],
      "name": "transferOwnership",
      "outputs": [],
      "payable": false,
      "stateMutability": "nonpayable",
      "type": "function"
    },
    {
      "anonymous": false,
      "inputs": [
        {
          "indexed": false,
          "name": "_sellerAddress",
          "type": "address"
        }
      ],
      "name": "NewSellerAdded",
      "type": "event"
    },
    {
      "anonymous": false,
      "inputs": [
        {
          "indexed": false,
          "name": "_adminAddress",
          "type": "address"
        }
      ],
      "name": "NewAdminAdded",
      "type": "event"
    },
    {
      "anonymous": false,
      "inputs": [
        {
          "indexed": false,
          "name": "storeOwnerAddress",
          "type": "address"
        }
      ],
      "name": "NewStoreCreated",
      "type": "event"
    },
    {
      "anonymous": false,
      "inputs": [
        {
          "indexed": false,
          "name": "name",
          "type": "string"
        },
        {
          "indexed": false,
          "name": "price",
          "type": "uint256"
        },
        {
          "indexed": false,
          "name": "quantity",
          "type": "uint256"
        }
      ],
      "name": "ProductAdded",
      "type": "event"
    },
    {
      "anonymous": false,
      "inputs": [
        {
          "indexed": true,
          "name": "id",
          "type": "uint256"
        },
        {
          "indexed": false,
          "name": "quantity",
          "type": "uint256"
        }
      ],
      "name": "PurchaseMade",
      "type": "event"
    },
    {
      "anonymous": false,
      "inputs": [
        {
          "indexed": true,
          "name": "previousOwner",
          "type": "address"
        },
        {
          "indexed": true,
          "name": "newOwner",
          "type": "address"
        }
      ],
      "name": "OwnershipTransferred",
      "type": "event"
    },
    {
      "constant": false,
      "inputs": [
        {
          "name": "newAdmin",
          "type": "address"
        }
      ],
      "name": "addAdmin",
      "outputs": [
        {
          "name": "",
          "type": "bool"
        }
      ],
      "payable": false,
      "stateMutability": "nonpayable",
      "type": "function"
    },
    {
      "constant": false,
      "inputs": [
        {
          "name": "newSeller",
          "type": "address"
        }
      ],
      "name": "addStoreOwner",
      "outputs": [
        {
          "name": "",
          "type": "bool"
        }
      ],
      "payable": false,
      "stateMutability": "nonpayable",
      "type": "function"
    }
  ],
  "bytecode": "0x6080604052336000806101000a81548173ffffffffffffffffffffffffffffffffffffffff021916908373ffffffffffffffffffffffffffffffffffffffff1602179055506000809054906101000a900473ffffffffffffffffffffffffffffffffffffffff1673ffffffffffffffffffffffffffffffffffffffff16600073ffffffffffffffffffffffffffffffffffffffff167f8be0079c531659141344cd1fd0a4f28419497f9722a3daafe3b4186f6b6457e060405160405180910390a3610924806100cf6000396000f3fe608060405260043610610099576000357c0100000000000000000000000000000000000000000000000000000000900463ffffffff168063429b62e51461009e578063621df534146101075780636d47ab721461017057806370480275146101d9578063715018a6146102425780638da5cb5b146102595780638f32d59b146102b05780639adeb5f1146102df578063f2fde38b14610348575b600080fd5b3480156100aa57600080fd5b506100ed600480360360208110156100c157600080fd5b81019080803573ffffffffffffffffffffffffffffffffffffffff169060200190929190505050610399565b604051808215151515815260200191505060405180910390f35b34801561011357600080fd5b506101566004803603602081101561012a57600080fd5b81019080803573ffffffffffffffffffffffffffffffffffffffff1690602001909291905050506103b9565b604051808215151515815260200191505060405180910390f35b34801561017c57600080fd5b506101bf6004803603602081101561019357600080fd5b81019080803573ffffffffffffffffffffffffffffffffffffffff1690602001909291905050506103d9565b604051808215151515815260200191505060405180910390f35b3480156101e557600080fd5b50610228600480360360208110156101fc57600080fd5b81019080803573ffffffffffffffffffffffffffffffffffffffff1690602001909291905050506103f9565b604051808215151515815260200191505060405180910390f35b34801561024e57600080fd5b5061025761051d565b005b34801561026557600080fd5b5061026e6105ef565b604051808273ffffffffffffffffffffffffffffffffffffffff1673ffffffffffffffffffffffffffffffffffffffff16815260200191505060405180910390f35b3480156102bc57600080fd5b506102c5610618565b604051808215151515815260200191505060405180910390f35b3480156102eb57600080fd5b5061032e6004803603602081101561030257600080fd5b81019080803573ffffffffffffffffffffffffffffffffffffffff16906020019092919050505061066f565b604051808215151515815260200191505060405180910390f35b34801561035457600080fd5b506103976004803603602081101561036b57600080fd5b81019080803573ffffffffffffffffffffffffffffffffffffffff1690602001909291905050506107df565b005b60036020528060005260406000206000915054906101000a900460ff1681565b60016020528060005260406000206000915054906101000a900460ff1681565b60026020528060005260406000206000915054906101000a900460ff1681565b6000610403610618565b151561040e57600080fd5b6001600360008473ffffffffffffffffffffffffffffffffffffffff1673ffffffffffffffffffffffffffffffffffffffff16815260200190815260200160002060006101000a81548160ff0219169083151502179055507f2dbe9fb88463d989acccabbb6ee06901f83672eb78e04a11ff48dd8f69a27cda82604051808273ffffffffffffffffffffffffffffffffffffffff1673ffffffffffffffffffffffffffffffffffffffff16815260200191505060405180910390a1600360008373ffffffffffffffffffffffffffffffffffffffff1673ffffffffffffffffffffffffffffffffffffffff16815260200190815260200160002060009054906101000a900460ff169050919050565b610525610618565b151561053057600080fd5b600073ffffffffffffffffffffffffffffffffffffffff166000809054906101000a900473ffffffffffffffffffffffffffffffffffffffff1673ffffffffffffffffffffffffffffffffffffffff167f8be0079c531659141344cd1fd0a4f28419497f9722a3daafe3b4186f6b6457e060405160405180910390a360008060006101000a81548173ffffffffffffffffffffffffffffffffffffffff021916908373ffffffffffffffffffffffffffffffffffffffff160217905550565b60008060009054906101000a900473ffffffffffffffffffffffffffffffffffffffff16905090565b60008060009054906101000a900473ffffffffffffffffffffffffffffffffffffffff1673ffffffffffffffffffffffffffffffffffffffff163373ffffffffffffffffffffffffffffffffffffffff1614905090565b600060011515600360003373ffffffffffffffffffffffffffffffffffffffff1673ffffffffffffffffffffffffffffffffffffffff16815260200190815260200160002060009054906101000a900460ff1615151415156106d057600080fd5b6001600260008473ffffffffffffffffffffffffffffffffffffffff1673ffffffffffffffffffffffffffffffffffffffff16815260200190815260200160002060006101000a81548160ff0219169083151502179055507ff19ffa8583db63f6d100856c4e13c4c48b283cb390d001855e5ef47a309e95d282604051808273ffffffffffffffffffffffffffffffffffffffff1673ffffffffffffffffffffffffffffffffffffffff16815260200191505060405180910390a1600260008373ffffffffffffffffffffffffffffffffffffffff1673ffffffffffffffffffffffffffffffffffffffff16815260200190815260200160002060009054906101000a900460ff169050919050565b6107e7610618565b15156107f257600080fd5b6107fb816107fe565b50565b600073ffffffffffffffffffffffffffffffffffffffff168173ffffffffffffffffffffffffffffffffffffffff161415151561083a57600080fd5b8073ffffffffffffffffffffffffffffffffffffffff166000809054906101000a900473ffffffffffffffffffffffffffffffffffffffff1673ffffffffffffffffffffffffffffffffffffffff167f8be0079c531659141344cd1fd0a4f28419497f9722a3daafe3b4186f6b6457e060405160405180910390a3806000806101000a81548173ffffffffffffffffffffffffffffffffffffffff021916908373ffffffffffffffffffffffffffffffffffffffff1602179055505056fea165627a7a72305820071ceb364e070354a6d532233c9abfb28c9d09d3c585f1bcb2ae2d4ccf5220ba0029",
  "source": "pragma solidity ^0.5.0;\r\n\r\nimport \"node_modules/openzeppelin-solidity/contracts/ownership/Ownable.sol\";\r\n\r\ncontract MarketPlace is Ownable {  \r\n    //Mappings\r\n\r\n    \r\n    mapping (address => bool) public stores;\r\n    mapping (address => bool) public sellers;\r\n    mapping (address => bool) public admins;\r\n\r\n    //Events\r\n\r\n    event NewSellerAdded(address _sellerAddress);\r\n    event NewAdminAdded(address _adminAddress);\r\n    event NewStoreCreated(address  storeOwnerAddress);\r\n    event ProductAdded(string name,  uint256 price, uint256 quantity);\r\n    event PurchaseMade(uint256 indexed id, uint256 quantity);\r\n\r\n    //Variables & constructor\r\n\r\n\r\n\r\n    struct Item {\r\n        string name;\r\n        uint price;\r\n        uint quantity;\r\n    }\r\n\r\n    struct seller {\r\n        address  sellerAddress;\r\n        uint256 balance;\r\n        bool isSeller;\r\n    }\r\n    //Modifiers\r\n\r\n    modifier onlyAdmin() {\r\n        require(admins[msg.sender] == true);\r\n        _;\r\n    }\r\n\r\n    modifier onlySeller(){\r\n        require(sellers[msg.sender] == true);\r\n        _;\r\n    }\r\n\r\n   //functions\r\n\r\n\r\n    function addAdmin(address newAdmin) public onlyOwner returns(bool) {\r\n        admins[newAdmin] = true;\r\n        emit NewAdminAdded(newAdmin);\r\n        return admins[newAdmin];\r\n    }\r\n\r\n    function addStoreOwner(address newSeller) public onlyAdmin returns(bool){\r\n        sellers[newSeller] = true;\r\n        emit NewSellerAdded(newSeller);\r\n        return sellers[newSeller];   \r\n            \r\n    }\r\n\r\n    \r\n}\r\n\r\n    \r\n    \r\n  \r\n   ",
  "sourcePath": "C:/Users/Pokoli/Documents/GitHub/MarketPlace/contracts/Marketplace.sol",
  "compiler": {
    "name": "solc",
    "version": "0.5.0+commit.1d4f565a.Emscripten.clang"
  },
  "schemaVersion": "3.0.1",
  "updatedAt": "2019-01-25T05:31:12.991Z",
  "devdoc": {
    "methods": {
      "isOwner()": {
        "return": "true if `msg.sender` is the owner of the contract."
      },
      "owner()": {
        "return": "the address of the owner."
      },
      "renounceOwnership()": {
        "details": "Allows the current owner to relinquish control of the contract."
      },
      "transferOwnership(address)": {
        "details": "Allows the current owner to transfer control of the contract to a newOwner.",
        "params": {
          "newOwner": "The address to transfer ownership to."
        }
      }
    }
  },
  "userdoc": {
    "methods": {
      "renounceOwnership()": {
        "notice": "Renouncing to ownership will leave the contract without an owner. It will not be possible to call the functions with the `onlyOwner` modifier anymore."
      }
    }
  }
}